:02000004085F93
:1080000000805F08FCFF5F080000060020000501FB
:088010000401AA1600000000A3
:108018001348144908B5884205D0134A824202D051
:10802800124B121A98471248124A0021124B121A80
:10803800984712481249884205D0124A824202D013
:108048000A4B121A984710481049884205D0104A1E
:10805800824202D0054B121A9847014808BD00BF5A
:108068008CAC071080F35F0810AD07102D0D1110B0
:1080780010AD0710F8AF0710A10E1110208D3F02A8
:10808800A8805F08288D3F02288D3F02B0805F08D6
:0C809800F8FF3F0219805F0800000000A4
:0880A8009C805F08FCED3F0223
:1080B00081F0004102E000BF83F0004330B54FEA99
:1080C00041044FEA430594EA050F08BF90EA020F06
:1080D0001FBF54EA000C55EA020C7FEA645C7FEA99
:1080E000655C00F0E2804FEA5454D4EB5555B8BFBC
:1080F0006D420CDD2C4480EA020281EA030382EA2D
:10810000000083EA010180EA020281EA0303362DBE
:1081100088BF30BD11F0004F4FEA01314FF4801C91
:108120004CEA113102D0404261EB410113F0004FA3
:108130004FEA03334CEA133302D0524263EB43035A
:1081400094EA050F00F0A780A4F10104D5F1200EF8
:108150000DDB02FA0EFC22FA05F2801841F1000153
:1081600003FA0EF2801843FA05F359410EE0A5F127
:1081700020050EF1200E012A03FA0EFC28BF4CF058
:10818000020C43FA05F3C01851EBE37101F000450E
:1081900007D54FF0000EDCF1000C7EEB00006EEB1B
:1081A0000101B1F5801F1BD3B1F5001F0CD34908A5
:1081B0005FEA30004FEA3C0C04F101044FEA4452FC
:1081C00012F5800F80F09A80BCF1004F08BF5FEA83
:1081D000500C50F1000041EB045141EA050130BD63
:1081E0005FEA4C0C404141EB0101013C28BFB1F575
:1081F000801FE9D291F0000F04BF01460020B1FAC0
:1082000081F308BF2033A3F10B03B3F120020CDA92
:108210000C3208DD02F1140CC2F10C0201FA0CF070
:1082200021FA02F10CE002F11402D8BFC2F1200CD5
:1082300001FA02F120FA0CFCDCBF41EA0C0190408B
:10824000E41AA2BF01EB0451294330BD6FEA0404D4
:108250001F3C1CDA0C340EDC04F11404C4F12002BF
:1082600020FA04F001FA02F340EA030021FA04F3D1
:1082700045EA030130BDC4F10C04C4F1200220FA28
:1082800002F001FA04F340EA0300294630BD21FA66
:1082900004F0294630BD94F0000F83F4801306BF2C
:1082A00081F480110134013D4EE77FEA645C18BF20
:1082B0007FEA655C29D094EA050F08BF90EA020FB7
:1082C00005D054EA000C04BF1946104630BD91EAAF
:1082D000030F1EBF0021002030BD5FEA545C05D1B2
:1082E0004000494128BF41F0004130BD14F58004F1
:1082F0003CBF01F5801130BD01F0004545F0FE4165
:1083000041F470014FF0000030BD7FEA645C1ABF99
:10831000194610467FEA655C1CBF0B46024650EAD0
:10832000013406BF52EA033591EA030F41F40021FC
:1083300030BD00BF90F0000F04BF0021704730B582
:108340004FF4806404F132044FF000054FF0000157
:1083500050E700BF90F0000F04BF0021704730B518
:108360004FF4806404F1320410F0004548BF4042ED
:108370004FF000013EE700BF42004FEAE2014FEA42
:1083800031014FEA02701FBF12F07F4393F07F4F1D
:1083900081F06051704732F07F4208BF704793F020
:1083A0007F4F04BF41F40021704730B54FF4607433
:1083B00001F0004521F000411CE700BF50EA010236
:1083C00008BF704730B54FF000050AE050EA0102DF
:1083D00008BF704730B511F0004502D5404261EB4F
:1083E00041014FF4806404F132045FEA915C3FF490
:1083F000D8AE4FF003025FEADC0C18BF03325FEA2D
:10840000DC0C18BF033202EBDC02C2F1200300FADD
:1084100003FC20FA02F001FA03FE40EA0E0021FA02
:1084200002F11444BDE600BF70B54FF0FF0C4CF4F0
:10843000E06C1CEA11541DBF1CEA135594EA0C0FA2
:1084400095EA0C0F00F0DEF82C4481EA030621EADD
:108450004C5123EA4C5350EA013518BF52EA033518
:1084600041F4801143F4801338D0A0FB02CE4FF0CA
:108470000005E1FB02E506F00042E0FB03E54FF0FA
:108480000006E1FB03569CF0000F18BF4EF0010EF2
:10849000A4F1FF04B6F5007F64F5407404D25FEAEE
:1084A0004E0E6D4146EB060642EAC62141EA5551A1
:1084B0004FEAC52040EA5E504FEACE2EB4F1FD0CE3
:1084C00088BFBCF5E06F1ED8BEF1004F08BF5FEA61
:1084D000500E50F1000041EB045170BD06F0004613
:1084E00046EA010140EA020081EA0301B4EB5C04C0
:1084F000C2BFD4EB0C0541EA045170BD41F48011B8
:108500004FF0000E013C00F3AB8014F1360FDEBFDC
:10851000002001F0004170BDC4F10004203C35DAB8
:108520000C341BDC04F11404C4F1200500FA05F33B
:1085300020FA04F001FA05F240EA020001F00042DC
:1085400021F0004110EBD37021FA04F642EB060152
:108550005EEA430E08BF20EAD37070BDC4F10C047C
:10856000C4F1200500FA04F320FA05F001FA04F240
:1085700040EA020001F0004110EBD37041F100012C
:108580005EEA430E08BF20EAD37070BDC4F1200537
:1085900000FA05F24EEA020E20FA04F301FA05F29F
:1085A00043EA020321FA04F001F0004121FA04F247
:1085B00020EA020000EBD3705EEA430E08BF20EA17
:1085C000D37070BD94F0000F0FD101F00046400051
:1085D00041EB010111F4801F08BF013CF7D041EAD3
:1085E000060195F0000F18BF704703F000465200D7
:1085F00043EB030313F4801F08BF013DF7D043EAA8
:108600000603704794EA0C0F0CEA135518BF95EA5D
:108610000C0F0CD050EA410618BF52EA4306D1D1E4
:1086200081EA030101F000414FF0000070BD50EA03
:10863000410606BF1046194652EA430619D094EA8D
:108640000C0F02D150EA013613D195EA0C0F05D177
:1086500052EA03361CBF104619460AD181EA0301CB
:1086600001F0004141F0FE4141F470014FF0000083
:1086700070BD41F0FE4141F4780170BD70B54FF01E
:10868000FF0C4CF4E06C1CEA11541DBF1CEA13559E
:1086900094EA0C0F95EA0C0F00F0A7F8A4EB050480
:1086A00081EA030E52EA03354FEA013100F0888077
:1086B0004FEA03334FF0805545EA131343EA126340
:1086C0004FEA022245EA111545EA10654FEA0026F5
:1086D0000EF000419D4208BF964244F1FD0404F5AE
:1086E000407402D25B084FEA3202B61A65EB03050A
:1086F0005B084FEA32024FF480104FF4002CB6EBC7
:10870000020E75EB030E22BFB61A754640EA0C0046
:108710005B084FEA3202B6EB020E75EB030E22BF86
:10872000B61A754640EA5C005B084FEA3202B6EBC7
:10873000020E75EB030E22BFB61A754640EA9C0086
:108740005B084FEA3202B6EB020E75EB030E22BF56
:10875000B61A754640EADC0055EA060E18D04FEA14
:10876000051545EA16754FEA06164FEAC30343EAB4
:1087700052734FEAC2025FEA1C1CC0D111F4801F81
:108780000BD141EA00014FF000004FF0004CB6E77A
:1087900011F4801F04BF01430020B4F1FD0C88BF19
:1087A000BCF5E06F3FF6AFAEB5EB030C04BFB6EB24
:1087B000020C5FEA500C50F1000041EB045170BD17
:1087C0000EF0004E4EEA113114EB5C04C2BFD4EB44
:1087D0000C0541EA045170BD41F480114FF0000EC8
:1087E000013C90E645EA060E8DE60CEA135594EA44
:1087F0000C0F08BF95EA0C0F3FF43BAF94EA0C0F47
:108800000AD150EA01347FF434AF95EA0C0F7FF4BB
:1088100025AF104619462CE795EA0C0F06D152EA0F
:1088200003353FF4FDAE1046194622E750EA4106F3
:1088300018BF52EA43067FF4C5AE50EA41047FF404
:108840000DAF52EA43057FF4EBAE12E707EE900A54
:10885000F5EEC07AF1EE10FA01D400F00BB8F1EEAB
:10886000677A08B517EE900A00F004F8404261EB11
:10887000410108BDD0B5FFF77FFD00220B4B064636
:108880000F46FFF7D1FD00F015F80446FFF752FD43
:108890000022074BFFF7C8FD02460B46304639461B
:1088A000FFF70AFC00F006F82146D0BD0000F03DBD
:1088B0000000F0414A0011D212F5001211D20DD57C
:1088C0006FF47873B3EB62520ED44FEAC12343F0D6
:1088D000004343EA505323FA02F070474FF0000080
:1088E000704750EA013002D14FF0FF3070474FF02F
:1088F0000000704710F8012B11F8013B012A28BF36
:108900009A42F7D0D01A7047034613F8012B002A79
:10891000FBD1181A0138704770B504F03DFB0025F3
:10892000054E064CA41BA408AC4200D170BD56F8FD
:10893000043B98470135F7E7D0FF3F02F8FF3F02BD
:1089400000F066BF08B500F0FDFEBDE8084004F089
:10895000DBBA03F071BE03F06FBE03F07BBE000014
:108960000C2008B5024A034903F0DEFCFEE700BF15
:1089700065C93F020CEE3F020078B0FA80F0400972
:108980007047012303707047436913B183690C304A
:108990001847704713B500210446084603F008FA4B
:1089A0000023204601A9019303F02CFA019C0CB18D
:1089B000012323710021012003F0FAF92CB123686F
:1089C00020469B6898470023237102B010BD012AFE
:1089D00002D1016000207047022A04BF0B680360C7
:1089E000F8E70368184710B504463AB903689B686E
:1089F00098472046BDE8104004F0C1B8D2B204F058
:108A0000D6F8F6E710B5044642B90268C9B29268D2
:108A100090472046BDE8104004F0B1B8D2B204F04F
:108A2000C6F8F6E707B5806830B10023CDE900133A
:108A30001A46012103F0F4F903B05DF804FB37B5E1
:108A4000044680680D4630B1002302211A46CDE964
:108A5000003303F0E5F9A06830B100231A46194647
:108A6000CDE9005303F0DCF903B030BD08B503F0E5
:108A7000ABFD20B1BDE80840002003F0B3BD08BD48
:108A80000EB403B503AB53F8042B0021019304F09B
:108A9000ACF802B05DF804EB03B0704710B5836822
:108AA000044613B1032201469847204610BD00003A
:108AB00037B5134B044603608068C8B100256FF0DA
:108AC00000430221CDE900352A462B4603F0A8F9E0
:108AD0002946A06803F0C0F9237903F0FF0513B11C
:108AE00003F058F9F8E72946A06803F07DF9A5607E
:108AF00004F10C00FFF7D2FF204603B030BD00BFE9
:108B000080F43F0210B50446FFF7D2FF20461C2137
:108B1000FFF723FF204610BDF0B5002504468C4624
:108B200085B0134902AF05718560016092E80300CA
:108B300087E8030004F10C0696E8030082E80300CE
:108B400097E8030086E803009168A0696161D16835
:108B50009560D060A161CDE9003561462346054AA4
:108B600004F1080003F032F9204605B0F0BD00BF63
:108B700080F43F020D963F021FB504462449684623
:108B800003F06DFF04F026FB22462249FFF778FF31
:108B90002149684603F093FF204A214900231288A7
:108BA00051F824101F4804F091FC28B31E491D48B9
:108BB00003F0F1FF1D491B4803F0EDFF1C49194864
:108BC00003F0E9FF1B49174803F0E5FF1A49154870
:108BD00003F0CAFF0A220299124803F0E8FF114885
:108BE00003F0CDFF0F4803F0CAFF00990D4803F0D2
:108BF000BBFF0C4803F0C3FF0A4804F0E5FC10B1CA
:108C0000084804F015FE684603F0DEFE04B010BD0F
:108C10002FF03F0221EE3F0238EE3F02A0AC0710DA
:108C20009CAC071028AD071064EF3F028CEF3F02A9
:108C3000B2EF3F02EFEF3F0206F03F021FB50446DE
:108C40002449684603F00BFF04F0C4FA2246224987
:108C5000FFF716FF2149684603F031FF204A2149FA
:108C60000023128851F824101F4804F02FFC28B369
:108C70001E491D4803F08FFF1D491B4803F08BFF61
:108C80001C49194803F087FF1B49174803F083FF6D
:108C90001A49154803F068FF0A220299124803F0A6
:108CA00086FF114803F06BFF0F4803F068FF00993F
:108CB0000D4803F059FF0C4803F061FF0A4804F027
:108CC00083FC10B1084804F0B3FD684603F07CFE55
:108CD00004B010BD2FF03F0217F03F0230F03F020A
:108CE000A0AC07109CAC071028AD071064EF3F0242
:108CF0008CEF3F02B2EF3F02EFEF3F0206F03F0280
:108D000038B503F001F8134C05460021204601F068
:108D10006AFD03F03FF84FF47841204601F063FD0F
:108D200003F038F84FF4FC61204601F05CFD03F0DD
:108D300031F81F21204601F056FD03F02BF80021E9
:108D4000204601F050FD03F025F802F0DDFF401B46
:108D500038BD00BFCCAD071038B5374C00212046D8
:108D600001F041FD02F0D0FF00230546012120461D
:108D7000236102F07FFE4FF0FF3320460121636143
:108D800002F02BFC20462D4903F005FF6FF01F1366
:108D900020460221636102F020FC0A2240F2D24107
:108DA000204603F004FF2046254903F0DDFE0A2299
:108DB0000521204603F0FBFE0A220621204603F08F
:108DC000F6FE204603F0DBFE4FF0F8232046032199
:108DD000636102F002FC10221A49204603F0E7FE0C
:108DE000204603F0CCFE204603F0C9FE164B204679
:108DF0000521636102F0F1FB2046144903F0CBFE2C
:108E00002046022102F0E9FB2046114903F0C3FE8F
:108E10002046012102F0E1FB20460E4903F0BBFE93
:108E200020460D4903F0B7FE0C49204603F0B3FE7F
:108E300002F06AFF401B38BDCCAD07105CF13F0269
:108E40006CF13F02EFBEADDEE007E0076EF13F02DE
:108E50007BF13F028CF13F02B0F13F02D0F13F02C3
:108E60002DE9F04FDFF8CC91002185B0044648464B
:108E7000B9F90E70B9F90C80002501F0B4FC02F0CC
:108E800089FF02F041FF7E1E0FFA86FA454509DA96
:108E900000222BB211464846CDE900A401F0B1FCF6
:108EA0000635F3E74FF0000908F1FF35DFF884A13C
:108EB0000FFA85FBB9450CDA00220FFA89F300930B
:108EC00011465B465046019401F09BFC09F10609EE
:108ED000F0E74FF0000902F017FFDFF858A102F0A9
:108EE00059FF0021534801F07EFC0FFA86FB02F087
:108EF00051FF02F009FF29B2C1450CDA0FFA89F3DC
:108F000000225046CDE900B4029109F1060901F0B2
:108F100078FC0299F0E74FF00009DFF818A10FFA8A
:108F200085FBB9450CDA0FFA89F300930023594603
:108F30001A465046019401F064FC09F10609F0E775
:108F40004FF00009CB4602F0DFFEDFF8E8A002F0A8
:108F500021FF0021374801F046FC02F01BFF02F020
:108F6000D3FE32B2C1450CDA0FFA89F30021504624
:108F7000CDE900B4029209F1060901F042FC029A1F
:108F8000F0E74FF00009DFF8ACA02BB20FFA86FB38
:108F9000B9450DDA0FFA89F2009200215A4650467F
:108FA0000194029309F1060901F02BFC029BEFE703
:108FB00002F0AAFE02F0EEFE00211E4801F013FCB2
:108FC00002F0E8FE02F0A0FE4FF00009DFF864A016
:108FD000029032B20FFA85FBC1450DDA00235946E3
:108FE000009350460FFA89F30194039209F10609A0
:108FF00001F007FC039AEFE74FF00008DFF8349028
:1090000036B22DB2B8450CDA0FFA88F30093324627
:10901000002329464846019401F0F3FB08F10608B5
:10902000F0E702F0B7FE02F06FFE029BC01A05B037
:10903000BDE8F08FCCAD07102DE9F347164D804603
:109040000F4628460021B5F90CA0B5F90E9001F0A5
:10905000CAFB02F059FE002406464C4509DA22B24A
:10906000534600212846CDF8008001F002F905346E
:10907000F3E70024084D544508DA21B24B4600229C
:109080002846009701F035F90534F4E702F03CFE7C
:10909000801B02B0BDE8F087CCAD07102DE9F34787
:1090A000184C002181462046B4F90C50B4F90E60EA
:1090B00001F099FBB4F90CA0B4F90E3002279A45DF
:1090C000A8BF9A4602F020FE804605EBD57506EB58
:1090D000D6766D10761057450DDAC7F34F013BB2C7
:1090E000721A691A2046CDE9003912B209B201F0AC
:1090F000C9FB0637EFE702F007FEA0EB080002B05D
:10910000BDE8F087CCAD07102DE9F04F244F87B0B4
:109110000391814600213846B7F90C50B7F90E404B
:1091200001F061FBB7F90C60B7F90E304FF00008A1
:109130009E42A8BF1E4605EBD57504EBD4746D1096
:109140006410013D013C2DB224B2002E24DD02F05A
:10915000DBFDC6F34F020FFA86FAA91AA21A09B26A
:1091600012B253468346CDE900A93846CDE9041230
:1091700001F01DF802F0C8FDDDE90412039BA0EB2D
:109180000B00CDE900A380445346384601F07AFB3A
:10919000063E02F0FFFDD8E7404607B0BDE8F08F7D
:1091A000CCAD07102DE9F04F0446164E87B0049160
:1091B0000FFA80F800214FEA400A3046B6F90C90C9
:1091C000B6F90EB001F00FFB02F09EFD25460390AC
:1091D0004D4510DA274629B25F450ADA049B3AB2B8
:1091E0000093304643460591574401F0CDFD059963
:1091F000F2E75544ECE702F087FD039BC01A07B085
:10920000BDE8F08FCCAD07102DE9F04FDFF854A08A
:1092100085B0BAF90C70BAF90E8002910FFA80F994
:109220004FEA400B0744804402F06EFD00240646DE
:10923000BC4210DA002521B245450ADA029B2AB267
:10924000009350464B4603915D4401F081FB039926
:10925000F2E75C44ECE702F057FD801B05B0BDE887
:10926000F08F00BFCCAD07102DE9F04FDFF89080F4
:1092700087B0B8F90C60B8F90E4006EBD67604EB6F
:10928000D4747610641000214046013C06F1FF3989
:1092900001F0A9FA0FFA89F923B24B45A8BF4B4652
:1092A000049302F031FD00270590A4B2049B9F4275
:1092B0001FDAFBB21A461946404600F057FE751EEB
:1092C0001FFA87FBADB214FA87FAA5EB0B035D44D6
:1092D0000FFA8AFAA4EB0B022DB2CDE902A049469F
:1092E0004046CDE900A51BB212B201F075FE05376C
:1092F000DCE702F009FD059BC01A07B0BDE8F08F5E
:10930000CCAD07102DE9F04F354D89B0B5F90C30D3
:10931000002103EBD3735B10049303F1FF38B5F91D
:109320000E30284603EBD3735C1001F05CFA02F0B8
:10933000EBFC631E1CB20FFA88F84445A8BF4446F4
:109340004FF0000B9BB206930A2C44DD02F0DCFCCC
:10935000069BA2B2A3EB0209049B04EB8406013B2B
:109360009BB20699A3EB020A76001344F6B21BB235
:109370008F1807903246002105932846334600F0A7
:10938000F5FD059B3FB20FFA89F90FFA8AFA4A46B2
:109390004146CDE90270CDE900732846534601F0FD
:1093A00046FE02F0B1FC079B3246C01A314600234C
:1093B0008344284600F0DAFD059B4A464146CDE944
:1093C0000270CDE900732846534601F005FE053CC6
:1093D00002F0E0FCB8E7584609B0BDE8F08F00BFE6
:1093E000CCAD07102DE9F04F214E0021B6F90C301D
:1093F000304603EBD375B6F90E3085B003EBD3746A
:1094000001F0F1F9B6F90CA0B6F90E3000279A4533
:10941000A8BF9A4602F078FC81466D106410013DA9
:10942000013C2DB224B257451ADA0023F9B21A468C
:10943000304600F09BFDC7F34F080FFA87FB47F358
:10944000CF03A4EB0802A5EB0801CDE900B302901D
:109450005B46304612B209B201F0C1FC0637E2E7C2
:1094600002F052FCA0EB090005B0BDE8F08F00BF90
:10947000CCAD07102DE9FF47214E0021B6F90C3085
:10948000304603EBD377B6F90E307F1003EBD3757C
:1094900001F0A9F902F038FCB6F90C40B6F90E302B
:1094A00081469C42A8BF1C466D10013F013D3FB262
:1094B0002DB2142C1CDD0023E2B21946304600F018
:1094C00055FDC4F34F080FFA84FA44F3CF03A5EB1C
:1094D0000802A7EB0801CDE900A3029053463046ED
:1094E00012B209B201F014FD063C02F053FCE0E7B1
:1094F00002F00AFCA0EB090004B0BDE8F08700BF51
:10950000CCAD071007B51B4B1B491B680968024609
:109510005B1A40F6B8318B4228D8019000211748D9
:1095200002F024FA019A0121144802F01FFA019A6C
:109530000221124802F01AFA019A03210F4802F0A0
:1095400015FA019A04210D4802F010FA019A05213A
:109550000A4802F00BFA0621019A084802F006FABE
:10956000064803B05DF804EB02F0F6B803B05DF80E
:1095700004FB00BF6CAD071044AD0710B4AD07107D
:1095800010B50F4C0F48FFF7BDFF2046002101F03A
:109590002AF900226FF01F1320460321C4E9042397
:1095A00002F01BF82046084903F0F5FA2046074967
:1095B00003F0F1FA2046BDE81040054903F0EBBA8C
:1095C000CCAD071000FFFF00EFF13F0218AE07100F
:1095D00048AD071010B50F4C4FF40040FFF792FF55
:1095E0002046002101F0FFF800220B4B204603210A
:1095F000C4E9042301F0F1FF2046084903F0CBFA47
:109600002046074903F0C7FA2046BDE81040054947
:1096100003F0C1BACCAD0710E007E00711F23F023A
:1096200018AE071048AD071010B50F4C0F48FFF7E4
:1096300069FF2046002101F0D6F800220C4B20469D
:109640000321C4E9042301F0C8FF2046094903F0BF
:10965000A2FA2046084903F09EFA2046BDE81040D1
:10966000064903F098BA00BFCCAD071000A5FF0073
:1096700020FD20FD23F23F0218AE071048AD071071
:1096800030B585B0FFF7F2F950B903F0A3FD2549D5
:10969000FFF7F6F9FFF7EAF941F2883003F0E6FB4D
:1096A000214C0021204601F09EF800226FF01F138C
:1096B00003212046C4E9042301F08FFF03F094FB4B
:1096C000039003F09DFB039B0921184A0090184862
:1096D00002F0DCFF03F0ACFB039003F09DFB0546BA
:1096E00003F0AEFB039B2021CDE90050114A124844
:1096F00002F0CCFF03F06EFD0D4A1049FFF7C0F9F0
:1097000003F068FD0C4A0E49FFF7BAF920460849F4
:1097100003F041FA2046084905B0BDE8304003F0A7
:109720003ABA00BF41F23F02CCAD071075F23F02DA
:1097300018AE07107FF23F0248AD07108FF23F02CC
:10974000A1F23F0210B52A48FFF7DCFE02F0EAFA68
:10975000284B6FF0004118602748FFF770F96FF051
:1097600000412648FFF76BF96FF000412448FFF7EE
:1097700066F902F0D7FA234C2368C01A47F22F5338
:10978000984204D9FFF77CFF02F0CCFA20601E4C0F
:10979000208804F01FFA237A13BB003818BF012079
:1097A00063689842194B05D01A78606010B182F056
:1097B00001021A701B780120B3B1FFF73FFA6FF076
:1097C00000410D48FFF72EF96FF000410B48FFF7FD
:1097D00029F9BDE810406FF000410948FFF722B9B0
:1097E000B0FA80F04009DBE7FFF7C6F9E7E700BF12
:1097F0004763FF006CAD071024AE07107CAD071067
:1098000098AD071044AD071070AD071068AD071094
:1098100038B503F0DFFC4FF4E13103F0CFFC002159
:10982000DA4802F057F90023D94D1A4619466868FC
:1098300002F030FE002002F091FA0446002002F00F
:109840008DFA001B61F10001B0F57A7F71F1000320
:1098500008D200226868114602F00EFE10B902F02C
:10986000A5FEEBE700226868114602F005FEFFF74F
:10987000FDF8B9EE0C0A03F069FAC64801F006FFDC
:109880000F21C44802F0B5F80021C34AC14802F0D4
:109890006DF80121C14ABF4802F068F8FF22022199
:1098A000BC4802F063F84FF400420321B94802F0CB
:1098B0005DF80421BA4AB74802F058F80521B94AC0
:1098C000B44802F053F84FF47F020621B14802F089
:1098D0004DF8B04801F040FF41F2883003F0C6FA7D
:1098E000AC4802F0ADF800220A21A84802F068F95D
:1098F000044603F06FFCAC4903F036F903F06AFC50
:1099000021461022FFF76FF800220B219F4802F03A
:1099100057F9044603F05EFCA44903F025F903F06F
:1099200059FC21461022FFF75EF800220C219748CF
:1099300002F046F9044603F04DFC9D4903F014F98A
:1099400003F048FC21461022FFF74DF800220D21BC
:109950008E4802F035F9044603F03CFC954903F0CB
:1099600003F903F037FC21461022FFF73CF80022F0
:109970000F21864802F024F9044603F02BFC8E499F
:1099800003F0F2F803F026FC10222146FFF72BF833
:1099900003F020FC894903F008F90A2003F066FA75
:1099A00003F018FC864903F0E6F803F013FC0446C4
:1099B000FFF7A6F90A2201462046FFF723F84FF4E5
:1099C000FA7003F053FA03F005FC7E4903F0D3F874
:1099D00003F000FC0446FFF7BFF90A2201462046C7
:1099E000FFF710F840F6B83003F040FA03F0F2FB4E
:1099F000754903F0C0F803F0EDFB044640F2FF7038
:109A0000FFF72EFA0A2201462046FEF7FBFF4FF42D
:109A1000FA7003F02BFA03F0DDFB6C4903F0ABF8AE
:109A200003F0D8FB1F2104464FF47840FFF704FBF6
:109A30000A2201462046FEF7E5FF4FF4FA7003F0D4
:109A400015FA03F0C7FB624903F095F803F0C2FB77
:109A500004464FF4FC60FFF721FB0A220146204632
:109A6000FEF7D0FF4FF4FA7003F000FA03F0B2FBF8
:109A7000584903F080F803F0ADFB4FF61F01044690
:109A80004FF6E070FFF740FB0A2201462046FEF742
:109A9000B9FF4FF4FA7003F0E9F903F09BFB4E496C
:109AA00003F069F803F096FB4FF61F0104460A2005
:109AB000FFF778FB0A2201462046FEF7A3FF03F0DA
:109AC00089FB464903F057F803F084FB4FF6FF711A
:109AD00004460A20FFF798FB0A2201462046FEF7BB
:109AE00091FF4FF4FA7003F0C1F903F073FB3C49A6
:109AF00003F041F803F06EFB0446FFF7B5FB0A22C2
:109B000001462046FEF77EFF4FF4FA7003F0AEF9EF
:109B100003F060FB334903F02EF803F05BFB0446CF
:109B2000FFF7F0FB0A2201462046FEF76BFF4FF4D9
:109B3000FA7003F09BF903F04DFB2B4903F01BF87F
:109B400003F048FB0446FFF74DFC0A22014620467D
:109B5000FEF758FF4FF4FA7003F088F903F03AFB70
:109B6000224903F008F803F035FB0446FFF782FCB6
:109B70000A2201462046FEF745FF4FF4FA7003F033
:109B800075F9BDE83840FFF77BBD00BFCCAD0710CD
:109B9000F0AE0710B4AD0710D300940082004B0064
:109BA00000FFFF0000A5FF00B3F23F02CAF23F0230
:109BB000DAF23F02EBF23F02FCF23F0210F33F0207
:109BC0003DF33F0257F33F0271F33F028BF33F0235
:109BD000A5F33F02BFF33F02D9F33F02F3F33F0285
:109BE0000DF43F0227F43F0241F43F025BF43F02D1
:109BF0007FB5324803F066FE0022314B0120C3E9F5
:109C00000022A2F580329A6002F0C6FBFEF72EFF1A
:109C10002C4B0522186004214FF0FF332A4801F035
:109C2000BDFF2A4CD4E88F3FDB070AD42046FEF75D
:109C3000A3FE30B10121264802F0C0FD2046FEF708
:109C4000A0FE234A02230721224801F010FD002430
:109C50000F20214B032118601C7203F091FF1F4B52
:109C60001F49204E204D6A46096800931F4823462D
:109C700003960295FEF750FF6846FEF70FFF1C4B58
:109C80001C496A46096800931B482346CDE90256E1
:109C9000FEF742FF6846FEF701FF184B18496A4677
:109CA0000968009317482346CDE90256FEF734FFB2
:109CB0006846FEF7F3FE04B070BD00BF28AD071084
:109CC0001CAD07106CAD0710CCAD071010AD071020
:109CD00014AD0710B4AD071070AD0710F9A13F0225
:109CE00098AC07105B963F0247963F0224AE0710E0
:109CF0004DA23F0290AC07107CAD0710A1A23F021D
:109D000094AC071098AD0710704710B504461021A9
:109D1000FEF723FE204610BD002180B203F041BFB4
:109D2000012180B203F03DBF002180B203F039BFB2
:109D3000012180B203F035BF002180B203F031BFB2
:109D4000012180B203F02DBF73B504462279084685
:109D5000A36832B1A3B90B4902B0BDE8704002F06C
:109D600003BF094A267B094D0949647B012E18BFB0
:109D70002946CDE900140749FEF782FE02B070BD06
:109D8000054AEFE7E8F43F022FF03F02E4F43F0218
:109D9000E0F43F02FEF43F02D7F43F0238B5044638
:109DA00012B209B21D4600F0BDFD00220B4B204649
:109DB00023609DF9183084F83C2084F83D309DF9EB
:109DC0001030226484F83E309DF91430A4F8442009
:109DD00084F83F30A264656238BD00BF24F53F02BD
:109DE0002DE9F04104460D4616461F46DFF84C802B
:109DF00086B0D8E88F0F10F001010BD140460591D5
:109E0000FEF7BAFD059928B10B4802F0D7FC404691
:109E1000FEF7B7FD9DF93430324602939DF930309C
:109E20002946CDE900732046034BFFF7B7FF2046D4
:109E300006B0BDE8F08100BF44AE071040AE071089
:109E4000F8B50446484F90F93E00002918BF0F4668
:109E50000028164609DB012180B203F091FE94F937
:109E60003E00012180B203F09CFE94F93F000121E5
:109E700080B203F085FE94F93F00012180B203F027
:109E800090FE94F83C5085BB0123606A84F82C5006
:109E9000276384F8343084F83560A66302F098FCB8
:109EA00094F93D0000285EDB012180B203F068FEDA
:109EB00094F93D00012180B203F073FE642002F0AA
:109EC000D5FF94F93D00002180B203F06AFE6420C2
:109ED00002F0CCFF94F93D00012180B203F061FE55
:109EE000BDE8F840C82002F0C1BF012D20D194F98F
:109EF0002400294680B203F043FE94F92400002197
:109F000080B203F04EFE94F92600294680B203F099
:109F100037FE94F92600002180B203F042FE94F946
:109F200025000028BCDB002180B203F029FEB7E742
:109F300094F92500012180B203F022FE94F9250056
:109F4000012180B203F02DFE94F926000028A7DB42
:109F5000012180B203F014FE94F92600012180B2A1
:109F600003F01FFE9CE7F8BD0024F4000448D20073
:109F700002F4FC6242EAD30300EA0120184370476E
:109F800000F8FFFF90F83C3023B900F12801406A47
:109F900002F04EBC704710B50446FFF7F3FF94F98A
:109FA0003E00002805DBBDE81040002180B203F030
:109FB000F8BD10BD90F83C3013B9406A02F01FBCE8
:109FC000704710B5044690F93E00002803DB0121DC
:109FD00080B203F0E6FD2046FFF7ECFF10BD70B540
:109FE00090F83C10054621B9BDE87040406A02F087
:109FF000BFBC01291DD190F92530002B19DB0826A3
:10A00000002495F92600FFF78BFE95F925006400E2
:10A0100080B2E4B203F0DEFD08B10134E4B295F998
:10A020002600013EFFF778FE16F0FF06E9D1204634
:10A0300070BD0024FBE710B5044690F9250000210F
:10A0400080B203F0AEFD94F925000121BDE8104077
:10A0500080B203F0A6BD2DE9F04105460E46144638
:10A060007AB190F83C304FEA1128CFB25BB9414643
:10A07000686A02F07DFC3946686A02F079FC013CAE
:10A08000F5D1BDE8F081012B1ED1B046102718F4A0
:10A09000004F95F9240014D0FFF74AFE95F92600E9
:10A0A000013FFFF73DFE4FEA480895F92600BFB291
:10A0B000FFF732FE1FFA88F8002FE8D1013CE4D107
:10A0C000DFE7FFF731FEE9E7B845DAD02846FFF7CA
:10A0D000B2FF013CFAD1D4E72DE9F3411D46044615
:10A0E000BDF82030BDF824600093036892B2D3F825
:10A0F000548089B2ABB2BDF92070C04731462046CA
:10A1000005FB07F202B0BDE8F041FFF7A4BF2DE95F
:10A11000F341BDF92040002B46D0002C44D0002B49
:10A1200005DA013111FA83F15B4209B21BB2B0F9D1
:10A130000C608E4238DD002C05DA013212FA84F20E
:10A14000644212B224B2B0F90E5095422CDD01EBFC
:10A1500003081FFA88F808F1FF3C0FFA8CFCBCF1E9
:10A16000000F21DB02EB040E1FFA8EFE0EF1FF370B
:10A170003FB2002F18DB0029BCBF00210FFA88F383
:10A18000002ABCBF00220FFA8EF46645DCBF731AAA
:10A190001BB2BD42D8BFAC1ABDF82450D8BF24B200
:10A1A000CDE90045FFF798FF02B0BDE8F0812DE949
:10A1B000F74380460C4615461E46BDF92870BDF88B
:10A1C0002C90002B52D0002F50D0002B05DA0134F8
:10A1D00014FA83F45E4224B236B2B8F90C30A342CA
:10A1E00044DD002F05DA013515FA87F57F422DB2DF
:10A1F0003FB2B8F90E20AA4238DD04EB060E1FFA72
:10A200008EFE0EF1FF3000B200282FDB05EB070CAD
:10A210001FFA8CFC0CF1FF3109B2002926DB002C5F
:10A22000BCBF00240FFA8EF6002DBCBF00250FFA2C
:10A230008CF78342DCBF1B1B1EB28A42D8F8003069
:10A24000DCBF521B17B240465B6998473346404615
:10A250002A462146CDE90079FFF73EFF4046D8F86F
:10A260000030DB6A03B0BDE8F043184703B0BDE837
:10A27000F0832DE9F341171E06460C461D46BDF836
:10A28000208033DBB0F90E30BB422FDD002D2DD006
:10A2900005DA013414FA85F46D4224B22DB2B6F910
:10A2A0000C30A34222DD611989B24A1E12B2002A83
:10A2B0001CDB002CBCBF00240DB29342DCBF1B1B77
:10A2C0001DB2336830465B699847012330460093DE
:10A2D0003A462B462146CDF80480FFF7FDFE304676
:10A2E0003368DB6A02B0BDE8F041184702B0BDE850
:10A2F000F0812DE9F3410F1E064614461D46BDF8B8
:10A30000208031DBB0F90C30BB422DDD002D2BD08D
:10A3100005DA013414FA85F46D4224B22DB2B6F98F
:10A320000E30A34220DD611989B24A1E12B2002A02
:10A330001ADB002CBCBF00240DB29342DCBF1B1BF8
:10A340001DB2336830465B69984730460123224688
:10A350003946CDE90058FFF7BFFE30463368DB6A67
:10A3600002B0BDE8F041184702B0BDE8F081002A14
:10A3700073B526DBB0F90E40944222DD002B20D0CD
:10A3800005DA013111FA83F15B4209B21BB2B0F96F
:10A390000C408C4215DDCE18B6B2751E2DB2002DC4
:10A3A0000FDB0029BCBF002133B2AC42D8BF631A17
:10A3B000BDF81840D8BF1BB2019401240094FFF7E8
:10A3C0008BFE02B070BD73B5002926DBB0F90C40DE
:10A3D0008C4222DD002B20D005DA013212FA83F202
:10A3E0005B4212B21BB2B0F90E40944215DDD61892
:10A3F000B6B2751E2DB2002D0FDB002ABCBF0022A5
:10A4000033B2AC42D8BFA31ABDF81840D8BF1BB2B4
:10A41000CDE900340123FFF75FFE02B070BD70B5D7
:10A4200090F83C3004460D4623B9BDE87040406AC0
:10A4300002F09EBA012B18D108262B0694F92400AD
:10A4400010D5FFF775FC94F92600FFF769FC013E73
:10A4500094F92600FFF760FC6D0016F0FF06EDB2E0
:10A46000EBD170BDFFF760FCEDE7FFF7E4FDF8E727
:10A4700013B5044690F93F000191FFF75DFC2046BB
:10A480000199FFF7CCFF94F93F0002B0BDE81040FE
:10A49000FFF756BC70B50D46036804465B699847E4
:10A4A00055B194F844102046FFF7E2FF2368204698
:10A4B000BDE87040DB6A184794F84510F3E770B5C3
:10A4C00090F83C3005460C464BB9090A406A02F048
:10A4D0004FFA686AE1B2BDE8704002F049BA012B58
:10A4E00018D11026230495F9240010D5FFF720FC7D
:10A4F00095F92600FFF714FC013E95F92600FFF7B9
:10A500000BFC640016F0FF06A4B2EBD170BDFFF7A0
:10A510000BFCEDE7FFF78FFDF8E7F7B500290446E0
:10A520001E4617DBB0F90C308B4213DD002A11DB1D
:10A53000B0F90E3093420DDD0123056800936F6D75
:10A5400092B289B2B8473146204603B0BDE8F04028
:10A55000FFF7B5BF03B0F0BD2DE9F3410D1E044672
:10A5600016461F4620DBB0F90C30AB421CDD002A3A
:10A570001ADBB0F90E30934216DD03685B69984729
:10A580000123226800932046D2F85480A9B2B2B2C7
:10A59000C04720463946FFF792FF20462368DB6A12
:10A5A00002B0BDE8F041184702B0BDE8F08170B5D7
:10A5B00090F83C3004460D469BB9090E406A02F003
:10A5C000D7F9C5F30741606A02F0D2F9C5F3072154
:10A5D000606A02F0CDF9606AE9B2BDE8704002F04D
:10A5E000C7B9012B18D12026002D94F9240010DAC8
:10A5F000FFF79EFB94F92600FFF792FB013E94F9CA
:10A600002600FFF789FB16F0FF064FEA4505EBD160
:10A6100070BDFFF789FBEDE7FFF70DFDF8E72DE9CA
:10A62000F04F1F4685B0BDF93880A7EB010AA8EBB3
:10A630000209B9F1000FB8BFC9F10009BAF1000F62
:10A64000B8BFCAF1000AD14583460C461546BDF88D
:10A650003C3004DD3A462C4647460D469046BC4207
:10A6600005DD2A464546904622463C4617463E1B97
:10A67000B2B20092A8EB050282EAE271A1EBE271AC
:10A68000C6F3C03202FA86F64545B4BF01224FF048
:10A69000FF32019176100292BC421CDCDBF80020F4
:10A6A000D145D2F81880C7BF294622462A462146FE
:10A6B00003935846C047019A039BB61AB1B236B20B
:10A6C000002E05DA029A1544009A2DB2561836B2B9
:10A6D000013424B2E0E705B0BDE8F08F704710B454
:10A6E00004682469A4465DF8044B604730B4BDF8A3
:10A6F000085004680295A46BA44630BC604730B48F
:10A70000BDF8085004680295E46BA44630BC60476D
:10A7100070B4BDF90C50BDF810600468CDE9035663
:10A72000246CA44670BC60472DE9F3411C461646D4
:10A7300005460F460368013CBDF820805B69344440
:10A74000984724B22B68CDF80480009428469C6A70
:10A7500032463B463946A04728462B68DB6A02B0A2
:10A76000BDE8F04118472DE9F341174604461D4660
:10A770000E460368BDF820805B699847CDE90078F4
:10A7800022686B1E33442046956A31463A461BB216
:10A79000A84720462368DB6A02B0BDE8F0411847AD
:10A7A0002DE9F3471E4603680C465B6905461746CC
:10A7B000BDF92890BDF82C8098472644B4422B68F8
:10A7C0000BDACDF800802146D3F820A03A464B465C
:10A7D00028460134D04724B2F0E72846DB6A02B0AD
:10A7E000BDE8F047184713B50191B0F90E100268A3
:10A7F0000091146C0022B0F90C301146A04702B051
:10A8000010BD2DE9F7439942164680460D461C4679
:10A81000BDF92870BDF82C90026812D1BE42C2BFAB
:10A8200033463E461F46CDF828907B1C946B9B1BFD
:10A83000324629464046A4461BB203B0BDE8F04369
:10A840006047BE420AD19942C2BF0B4625461C460C
:10A85000CDF82890631C5B1BD46BE9E753699847DC
:10A86000CDE90079D8F8003040469F6A3246234649
:10A870002946B8474046D8F80030DB6A03B0BDE847
:10A88000F04318472DE9F34704460F4616461D4688
:10A890000368BDF82C805B69BDF928909847236850
:10A8A000CDF80080324639462046D3F824A02B4606
:10A8B000D047236809F1FF32CDF800803244394691
:10A8C0002046D3F824A012B22B46D0472368CDF8F7
:10A8D0000080324639462046D3F820A04B46D04768
:10A8E0006B1ED9192368CDF8008020461D6A3246B8
:10A8F0004B4609B2A84720462368DB6A02B0BDE890
:10A90000F0471847704701F00303B0F90A20837637
:10A91000B0F90830C90759BF8381C2818281C381E0
:10A920007047000030B50181002481814FF0FF3174
:10A93000054D4281C281054A4460C0E905120560A7
:10A9400004610477046230BD84FA3F020101000112
:10A950002DE9F04F0446164689469DB2C5F1010225
:10A960001F4613B2C5EBC53287B05200019313B234
:10A97000026804935269BDF840B090472168B3B2B1
:10A9800015FA86F2D1F8188020464946009312B293
:10A990005B46C047009B21685A1BD1F818805B4674
:10A9A0004946204612B2C047226815FA89F15B4633
:10A9B00020461FFA89F809B2D2F818903246C847E3
:10A9C0002268A8EB05015B4695692046324609B22C
:10A9D000A84700230393039BBB4276DA019B002B1D
:10A9E0000ADB049A013F023213B20493019B3FB287
:10A9F00013FA82F213B20193039A2168013213B25F
:10AA00000393019B96B203EB4602013213B201930A
:10AA1000009B08EB060A13FA87F20FFA8AFA12B2C1
:10AA20005B4620468D6902925146A847A8EB06096D
:10AA300021680FFA89F95B4620468D69029A4946DA
:10AA4000A847BBB202932168009B029A20469A1A3B
:10AA50008B6912B21D4651465B460592A847216894
:10AA60005B462046D1F818A0059A4946D047029B7C
:10AA7000216808EB0309009B0FFA89F99A1912B2B1
:10AA80005B462046D1F818A005924946D047029B64
:10AA90002168A8EB03052DB25B462046D1F818A02B
:10AAA000059A2946D047009B21689A1B12B25B4643
:10AAB00020468E6902924946B04721685B468E69FE
:10AAC00020462946029AB04785E720462368DB6A7C
:10AAD00007B0BDE8F04F18472DE9F04F1C4687B08E
:10AAE0000092A2B2C2F10106C2EBC232520012B20F
:10AAF0000392002280469DF8403002920193019A11
:10AB0000BDF8443002F0040236B204928FB2029AC9
:10AB1000A24280F29980002E08DB039A013C0232A7
:10AB200011B216FA82F624B2039136B2029A0132B9
:10AB300095B212B2029206EB4506049A013636B27D
:10AB4000F2B1009AD8F800001FFA84FA1AFA82F2D9
:10AB50007919D0F818B0BDF800904046059312B2AC
:10AB600009B2D847D8F8003009EB050207EB0A0113
:10AB7000D3F818B04046059B12B209B2D847059BDE
:10AB8000019A90071DD5BDF80090D8F800001FFA73
:10AB900084FAA9EB0A027919D0F818B00593404657
:10ABA00012B209B2D847D8F80030A9EB050207EB7A
:10ABB0000A01D3F818B04046059B12B209B2D84733
:10ABC000059B019A11071ED5009AD8F800001FFABC
:10ABD00084F915FA82F2A7EB0901D0F818B0BDF894
:10ABE00000A04046059312B209B2D847D8F8003009
:10ABF00009EB0A02791BD3F818B04046059B12B244
:10AC000009B2D847059B019AD20780D5BDF80090BC
:10AC1000D8F800001FFA84FAA9EB0502A7EB0A0195
:10AC2000D0F818B00593404612B209B2D847791B44
:10AC3000D8F80050A9EB0A02059B4046AD6912B254
:10AC400009B2A847059B62E707B0BDE8F08F2DE980
:10AC5000F04F1C468BB0BDF8583083460493A3B226
:10AC6000C3F10105C3EBC3335B001BB20793BDF90E
:10AC70005430884601339BB2059393B20693059BEB
:10AC80009DF8501003930023029301F001030893F1
:10AC9000DDF818A001F002032DB20993029BA34234
:10ACA0006FDA002D6BDB079B661E02331AB215FAB2
:10ACB00083F536B207922DB2029F01371FFA87F94A
:10ACC0003BB205EB490501359E4202932DB229DBCB
:10ACD000089B93B1049806990090DBF80000059B4F
:10ACE000006AB2B203EB42038A1A09EB0801074675
:10ACF0001BB2584612B209B2B847099B93B10498E7
:10AD00000699059BB2B20090DBF8000003EB42030A
:10AD10008A1AA8EB09011BB2D0F8209012B258464B
:10AD200009B2C847B44220D0089B73B1049ADBF83B
:10AD30000030009208EB0401D3F820905846BDF98A
:10AD40000C300FFA8AF209B2C847099B6BB1049A1A
:10AD5000DBF80030A8EB040100921C6A5846BDF9EC
:10AD60000C300FFA8AF209B2A0470AF1FF331FFA3A
:10AD700083FA039B344602339BB203938EE7264645
:10AD80009AE70BB0BDE8F08F2DE9F0411E4604466E
:10AD90001546036886B005915B69BDF83070984729
:10ADA000B2B2206853000097AA1A0133D0F820806D
:10ADB000059920461BB212B2C04703230022204649
:10ADC000CDE90032059933462A460297FFF73FFF47
:10ADD00020462368DB6A06B0BDE8F04118472DE93C
:10ADE000F04F89B0BDF948908B4699454D46A8BFB4
:10ADF0001D46BDF94C1005EBD5756E108E42A8BFEF
:10AE00000E4604460168059202934969BDF85070E8
:10AE100088471FFA8BF30493029B1FFA86FA9BB2B2
:10AE200002934FEA4A039BB203932168DDE90232A1
:10AE30001AFA8BF89B1A0FFA88F81BB20097204673
:10AE40004D6A059A41460793A847059A216895B22D
:10AE50006A1E1FFA89F312FA89F20593009793B2DA
:10AE60002046D1F8249006934146079B12B2C8476A
:10AE70000399059B0AEB05025B1A216812B21BB20B
:10AE8000009720460D6A059359460392A847049BF4
:10AE90002068591E029B039A19440097056A059B76
:10AEA00020461FFA81F9029209B2A84701234146C0
:10AEB0002046029A009301973346FFF70DFE0223C6
:10AEC000A9EB0A012046029A09B200930197334682
:10AED0000391FFF701FE069B2046A3EB0A02042321
:10AEE000039912B20093019733460292FFF7F4FDE3
:10AEF00008232046009341463346029A0197FFF704
:10AF0000EBFD20462368DB6A09B0BDE8F04F184727
:10AF10002DE9F04F2DED028B994687B0BDF94850D1
:10AF20000F464D452B46A8BF4B46BDF94C1003EBD1
:10AF3000D3735C108C42A8BF0C46036806461FFA08
:10AF400084F85B699346BDF850A09847BBB218FAE5
:10AF500087F705933BB208EE103ACDE9005A316805
:10AF60001FFA89F34FEA4809CA691FFA89F904935D
:10AF7000A3EB0903174618EE101A5A4630461BB2C7
:10AF8000B847059B013D591E049BA5EB09051944D3
:10AF900001232DB208EB0B02A1EB0801304612B2DF
:10AFA0000093CDE9015A234609B20492FFF74FFE00
:10AFB00002233046009318EE101A2346CDE9015AB9
:10AFC000049AFFF744FE30463368DB6A07B0BDECF5
:10AFD000028BBDE8F04F18472DE9F04F0446984624
:10AFE0000D4685B0BDF84460BDF938B00768CDE9BD
:10AFF00000B6BDF940A00392BF6CBDF93C90B847C4
:10B00000CDE900A623685A46414620469F6C4B4630
:10B01000B847039A23680E920F969E6C52462B46B1
:10B0200049462046B44605B0BDE8F04F60472DE9DB
:10B03000F04F8DB0BDF958601D46BDF86430B24286
:10B04000834689461446BDF95C80BDF9607004935F
:10B0500040F3CA80BA4217DDB7420FDA33463E46A4
:10B0600027461C462B464546C84699460CE02346D3
:10B0700034461E464B46A9461D46EDE723463C4650
:10B080001F464B46C1469846DBF8003058465B6980
:10B090009847BE4222D14D45C2BF2B464D469946E8
:10B0A000454505DCC145B8BFC146A8460FFA89F938
:10B0B0000499DBF8002009F101030091A3EB0803D8
:10B0C000546A4146324658461BB2A0475846DBF800
:10B0D0000030DB6A0DB0BDE8F04F18471FFA89F366
:10B0E0004FF000090393ABB20293DDE902239B1AF0
:10B0F0001BB21FFA86FC0893A3B2A3EB0C0212B298
:10B100000992029A1FFA88F1A1EB0208BAB2A2EBE7
:10B110000C0CD21A12B20A92CA4632460FFA8CF0BE
:10B1200006900398BC4218BF03F1FF33A1EB000166
:10B1300009B218BF1BB20FFA88F8079114BF059324
:10B140000594059B9A4223DC099B02989AFBF3F134
:10B15000029B0B921944069B09B299FBF3F303443B
:10B160001BB29942C2BF8C46194663460898013308
:10B17000824404985B1A0090DBF800001BB2406A1E
:10B18000C14405465846A8470B9A013212B2D8E787
:10B19000079B141B961B5C4308FB06F6BA4295DC22
:10B1A0000A9B029894FBF3F1039B05921944069BBA
:10B1B00009B296FBF3F303441BB29942C2BF8C461B
:10B1C0001946634607980133044404985B1A0090BB
:10B1D000DBF800001BB2D0F824905846C847059A07
:10B1E0004644013212B2D9E7BE423FF740AF334680
:10B1F00016461C462B460D4637E700002DE9F04F5A
:10B200002DED028B91B016461F46026ABDF87030D4
:10B210008346BDF874809DF878509DF87C4003917A
:10B220000493002A40F0C580B0F90C308B4240F303
:10B230004C81B0F90E30B34240F34781062313FB33
:10B240000513002B40F3418106EBC403002B40F3B0
:10B250003C81037F1BB9AF2F84BF0137FFB2DBF8FE
:10B26000003058465B6998470522099200220592F2
:10B27000984A07EB8703D3180C93B3B20693059A49
:10B280000C9B02FB05F99B5C0793ABB20B93BDF8DB
:10B290000C300893039B19FA83F90FFA89F308EE2F
:10B2A000103A08234FF000090A93039B02EB030AAC
:10B2B0000FFA8AFA079ADBF80030D20752D5012D2F
:10B2C0001FFA89F23ED1012C3CD19B6906991F4699
:10B2D000049B0A445146584612B2B84709F101038B
:10B2E0004FFA83F9079B5B0807930A9B013B13F016
:10B2F000FF030A93DED1059F01377BB20593099BBB
:10B30000013B13F0FF030993B9D1049B43450FD0D0
:10B31000012DDBF800303BD1012C39D10899CDF853
:10B32000008005311C6A32460823584609B2A047FE
:10B330005846DBF80030DB6A11B0BDEC028BBDE88B
:10B34000F04F184714FB02F206990A440499019140
:10B350000094DB6918EE101A1F4658462B4612B2AD
:10B36000B847BBE7049A4245B8D0012D1FFA89F2CD
:10B3700007D1012C05D19B6906991F460A44434613
:10B38000A8E714FB02F20699CDF804800A44DFE72F
:10B390000B9AE40002EB8201089ACDF804800A447B
:10B3A00011460094DC6932462B46584609B2A04744
:10B3B000BEE7137A5168FF1A1268FFB20B9231F898
:10B3C000372001EBC70306929A78012D0992DA78AB
:10B3D00093F906A00C9293F905200A9201D8012C4A
:10B3E00057D9BDF9283008930FFA8AF307934FF025
:10B3F0000008C1464746DBF8003058465B6998476D
:10B40000B3B20E931AFA86F30F930C9B9F428FD21E
:10B41000079B0E9A3B4403FB042300221BB208EE59
:10B42000103A434605920F9A02EB070A0FFA8AFA7E
:10B43000099A0599914241D25A1CD2B25B070D92EA
:10B4400007D1069B06990B9A01339BB212F8019023
:10B45000069319F0800F12D0012DDBF80030BDF8F3
:10B460000C101AD1012C18D10A9A9B691144059A23
:10B470001E46114458465246049B09B2B047059EE9
:10B480004FEA49090136F3B205935FFA89F90D9B3A
:10B49000CEE70023CDE90733A9E70598089A0244CF
:10B4A00002FB0511049A5846CDE90042DB6918EE0B
:10B4B000102A1E4609B22B46B047E0E7099B013728
:10B4C00098445FFA88F8FFB29FE711B0BDEC028B99
:10B4D000BDE8F08F7CF53F02F0B5026A04460B46EA
:10B4E00085B0002A34D10A2908D1438A0282427EDB
:10B4F00003EBC2036382012005B0F0BD0D29FAD031
:10B50000E17E007E657E71B10621B4F9106011FB09
:10B510000061B4F90C60B142C1BFB4F912102282CB
:10B5200001EBC5026282E28ACDE902050192A28A9C
:10B5300020460092B4F91010B4F91220FFF75EFE15
:10B54000237E228A03EB430302EB43032382D2E7E9
:10B550000A2907D100230382417E927A438A01FBA4
:10B560000233C7E70D29C6D0157AA942C3D3517A51
:10B570009942C0D351685D1BEDB201EBC505A878B7
:10B5800028B3E97819B3E17E267E677E91B195F9FB
:10B5900005100844B4F9101006FB0011B4F90C00B2
:10B5A000814207DD00202082B4F91210927A02FB5A
:10B5B00007126282E28A20460192A28ACDE90267DE
:10B5C0000092B4F91010B4F91220FFF717FE297990
:10B5D000227E238A01FB0233B8E7012938BF01210B
:10B5E0000176417670470000044B054A1A6001223B
:10B5F0001A7100229A609A81704700BF4CAE071002
:10B60000DCFA3F020EB44FF0200C002300B58CB0E2
:10B610000DAA52F8041BCDE904C3CDE90012039230
:10B62000016804AA322000F09BFE0CB05DF804EB28
:10B6300003B0704738B50446C0680D4608B101F044
:10B6400009F8A379062B0CBF0420032010FB05F09A
:10B6500080B2A08000F0F0FFE06028B10021A28855
:10B6600002F0F1FC658038BDA0806080FBE770B51A
:10B67000002504461646C0E903550570837105721E
:10B68000FFF7D8FF2046666170BD00002DE9F74F37
:10B6900083790446022B4ED143691B78012B06D9CE
:10B6A00029492A48FFF7AEFF03B0BDE8F08F002B11
:10B6B0000CBF4FF011094FF0040948460CBF10278A
:10B6C000032702F01DFA0646384602F019FA012E49
:10B6D000054633D1484602F07DFA8246012D30D12D
:10B6E000384602F077FA80464FF0010B184B60693C
:10B6F000CDE9003BFF226B460021007800F06CFD95
:10B700005A461449606901F001F93146484602F091
:10B7100037FA2946384602F033FA5E4504D14846E6
:10B720005FFA8AF102F03DFA012D04D138465FFA42
:10B7300088F102F036FA01232370B5E74FF0000AD2
:10B74000CCE74FF00008CFE7E8FA3F0278AE0710E9
:10B7500008000A0008AF2F00C368002B00F0FC802F
:10B7600070B583790446022B82B040F0EF80868862
:10B7700006EB4606F036304600F05EFF0546002830
:10B7800000F0EB803246002102F05DFC6288002A66
:10B7900000F0C780AC4602EBC202E1682A4491F98E
:10B7A00000300878002BB5BF4FF0D00E4FF0900E50
:10B7B000D823982310F0400F08BF734610F0200FD5
:10B7C00014BF0320022003448CF8783008780CF171
:10B7D000090C00F01003002B15BF4FF0690E4FF05D
:10B7E000490E6D234D2310F0080F08BF73468CF8E7
:10B7F00070300B78033113F0020F14BF302020207B
:10B8000013F0010F0CBF4FF0040E4FF0060E5B015A
:10B8100003F08003034473448CF8713011F9020C77
:10B8200011F8023C0028B5BF4FF0D00E4FF0900E3B
:10B83000D820982013F0400F08BF704613F0200F57
:10B8400014BF0323022303448CF8723011F8020C56
:10B8500000F01003002B15BF4FF0690E4FF0490E9A
:10B860006D234D2310F0080F08BF73468CF873301A
:10B8700011F802EC1EF0020F14BF302020201EF041
:10B88000010F14BF062304234FEA4E1E0EF0800E54
:10B8900086449E448CF874E011F9013C11F8010CC7
:10B8A000002BB5BF4FF0D00E4FF0900ED823982349
:10B8B00010F0400F08BF734610F0200F14BF032094
:10B8C000022003448CF8753011F8010C00F01003CD
:10B8D000002B15BF4FF0690E4FF0490E6D234D231D
:10B8E00010F0080F08BF73468CF8763011F8010C81
:10B8F00010F0020F14BF4FF0300E4FF0200E430136
:10B9000003F080037344DBB2C00703F1060E03F1BA
:10B9100004034CBF8CF877E08CF8773094457FF4C3
:10B920003EAF606900F068FF002233462946606937
:10B93000009201F023F8606900F061FF284600F0F2
:10B9400089FE00F0E1F9206102B070BD04490548AC
:10B95000FFF758FE02B070BD70470349F7E700BF1C
:10B9600008FB3F0278AE071024FB3F024388F0B586
:10B970008B422DD9067AC2F30743C2F30724D5B20E
:10B980003EB1734374437543C3F30723C4F30724E1
:10B990002D0A90F806C0C768BCF1060F0CBF04263C
:10B9A00003264E43ACF1020CB919BCF1060F1DD8A9
:10B9B000DFE80CF0041C08040F040400BC554B70B5
:10B9C0008D7005E0FE2B28BFFE23BB554D708C709B
:10B9D000F0BDBB554C708D70037A120E13B9D2B204
:10B9E000CA70F5E75A43C2F30722F9E7BB554C701A
:10B9F000E6E7037A4A1CD2B2934270B51FD0013BEE
:10BA000013F0FF03C4680CD0FF290FBF4FF6FF717E
:10BA1000110201F1FF31B1FBF3F30CBFB1FBF3F302
:10BA20009BB225468688291B89B28E4206D9297881
:10BA30005943C1F3072105F8011BF3E7027270BDFA
:10BA400082880021C06802F0FEBA704770B50D46CA
:10BA5000044603685B699847002D204614BF2121E6
:10BA60002021FEF705FD23682046BDE87040DB6A13
:10BA70001847000001F00301022970B504468176E1
:10BA80001CD003291ED0012915BF482528250F4B9E
:10BA90000F4B14BFC360C360236820465B6998479F
:10BAA00020463621FEF7E4FC20462946FEF7B7FC87
:10BAB00023682046BDE87040DB6A1847034B8825A1
:10BAC000C360E9E7024BE825C360E5E7F000400109
:10BAD0004001F0002DE9F843194B0446002918BF36
:10BAE0000B46002219468364FEF7AAF92368204614
:10BAF0005B699847134D2978D1B12046FEF7B8FC11
:10BB00006F7805F1020807F07F05C1462E46013E19
:10BB1000F6B2FF2E05D0204619F8011BFEF77FFC78
:10BB2000F5E73B064544E6D5782001F09FF9E2E7CA
:10BB300023682046DB6A9847034BE360BDE8F8833F
:10BB40000048E80141FB3F02F0004001E0B5074634
:10BB5000BDF810500B44013B154443EA0146013D3A
:10BB60002A2145EA0245FEF783FC31463846FEF7B6
:10BB70001EFD38462B21FEF77BFC29463846FEF792
:10BB800016FD3846BDE8E0402C21FEF771BC10B52B
:10BB900004464C21FCF7E1FE204610BD13B50446D7
:10BBA000CDE900230B464FF4A072F021FEF718F9FF
:10BBB0002046024B236002B010BD00BFB8FB3F021D
:10BBC000F8B5044615460E46876C0F4B10359F425C
:10BBD00088BF836403685B6998472046D921FEF7D4
:10BBE00047FC2046E9B2FEF71AFC31462046FEF734
:10BBF0003FFC2046FEF7F3F9054623682046DB6A42
:10BC000098472846A764F8BD00366E0109B5044878
:10BC10000068044B03441B689B68029309BD000045
:10BC20008CAC07105000000009B504480068044BB4
:10BC300003441B68DB68029309BD00008CAC07104D
:10BC40005000000009B504480068044B03441B6819
:10BC50009B68029309BD00008CAC07101400000023
:10BC600009B504480068044B03441B68DB68029371
:10BC700009BD00008CAC07101400000009B5044891
:10BC80000068044B03441B681B69029309BD000054
:10BC90008CAC07101400000009B504480068044B80
:10BCA00003441B685B69029309BD00008CAC07105C
:10BCB0001400000009B504480068044B03441B68E5
:10BCC0005B69029309BD00008CAC071054000000B2
:10BCD00009B504480068044B03441B685B68029381
:10BCE00009BD00008CAC07100000000009B5044835
:10BCF0000068044B03441B68DB68029309BD000025
:10BD00008CAC07100000000009B504480068044B23
:10BD100003441B681B69029309BD00008CAC07102B
:10BD20000000000009B504480068044B03441B6888
:10BD30005B69029309BD00008CAC07100000000095
:10BD400009B504480068044B03441B689B6D0293CB
:10BD500009BD00008CAC07100000000009B50448C4
:10BD60000068044B03441B68DB6D029309BD0000AF
:10BD70008CAC07100000000009B504480068044BB3
:10BD800003441B685B6E029309BD00008CAC071076
:10BD90000000000009B504480068044B03441B6818
:10BDA000DB68029309BD00008CAC07103000000076
:10BDB00009B504480068044B03441B68DB6902931F
:10BDC00009BD00008CAC07103000000009B5044824
:10BDD0000068044B03441B681B6A029309BD000002
:10BDE0008CAC07103000000009B504480068044B13
:10BDF00003441B685B6A029309BD00008CAC07100A
:10BE00003000000009B504480068044B03441B6877
:10BE10009B6A029309BD00008CAC07103000000043
:10BE200009B504480068044B03441B68DB6A0293AD
:10BE300009BD00008CAC07103000000009B50448B3
:10BE40000068044B03441B685B6C029309BD00004F
:10BE50008CAC07103000000009B504480068044BA2
:10BE600003441B681B6F029309BD00008CAC0710D4
:10BE70003000000009B504480068044B03441B6807
:10BE80005B69029309BD00008CAC07104C000000F8
:10BE900009B504480068044B03441B681B6A0293FD
:10BEA00009BD00008CAC07104C00000009B5044827
:10BEB0000068044B03441B689B6A029309BD0000A1
:10BEC0008CAC07104C00000009B504480068044B16
:10BED00003441B68DB68029309BD00008CAC0710AB
:10BEE0002400000009B504480068044B03441B68A3
:10BEF0001B69029309BD00008CAC071024000000F0
:10BF000009B504480068044B03441B685B6902934D
:10BF100009BD00008CAC07102400000009B50448DE
:10BF20000068044B03441B689B69029309BD000031
:10BF30008CAC07102400000009B504480068044BCD
:10BF400003441B68DB69029309BD00008CAC071039
:10BF50002400000009B504480068044B03441B6832
:10BF60001B6A029309BD00008CAC0710240000007E
:10BF700009B504480068044B03441B689B6A02939C
:10BF800009BD00008CAC07102400000009B504486E
:10BF90000068044B03441B681B6C029309BD00003E
:10BFA0008CAC07102400000009B504480068044B5D
:10BFB00003441B681B6A029309BD00008CAC071088
:10BFC0001000000009B504480068044B03441B68D6
:10BFD0005B6A029309BD00008CAC071010000000E2
:10BFE00009B504480068044B03441B689B6A02932C
:10BFF00009BD00008CAC07101000000009B5044812
:10C000000068044B03441B68DB6A029309BD00000F
:10C010008CAC07101000000009B504480068044B00
:10C0200003441B681B6B029309BD00008CAC071016
:10C030001000000009B504480068044B03441B6865
:10C040005B6B029309BD00008CAC07101000000070
:10C0500009B504480068044B03441B681B6C029339
:10C0600009BD00008CAC07101000000009B50448A1
:10C070000068044B03441B689B69029309BD0000E0
:10C080008CAC07102000000009B504480068044B80
:10C0900003441B68DB69029309BD00008CAC0710E8
:10C0A0002000000009B504480068044B03441B68E5
:10C0B0001B6A029309BD00008CAC07102000000031
:10C0C00009B504480068044B03441B689B6A02934B
:10C0D00009BD00008CAC07102000000009B5044821
:10C0E0000068044B03441B681B6B029309BD0000EE
:10C0F0008CAC07102000000009B504480068044B10
:10C1000003441B689B6B029309BD00008CAC0710B5
:10C110002000000009B504480068044B03441B6874
:10C120001B68029309BD00008CAC071018000000CA
:10C1300009B504480068044B03441B681B6902935B
:10C1400009BD00008CAC07101800000009B50448B8
:10C150000068044B03441B685B69029309BD00003F
:10C160008CAC07101800000009B504480068044BA7
:10C1700003441B68DB69029309BD00008CAC071007
:10C180001800000009B504480068044B03441B680C
:10C190001B6A029309BD00008CAC07101800000058
:10C1A00009B504480068044B03441B685B6A0293AA
:10C1B00009BD00008CAC07101800000009B5044848
:10C1C0000068044B03441B689B6A029309BD00008E
:10C1D0008CAC07101800000009B504480068044B37
:10C1E00003441B68DB6A029309BD00008CAC071096
:10C1F0001800000009B504480068044B03441B689C
:10C200009B6B029309BD00008CAC07101800000066
:10C2100009B504480068044B03441B68DB6B0293B8
:10C2200009BD00008CAC07101800000009B50448D7
:10C230000068044B03441B681B6C029309BD00009B
:10C240008CAC07101800000009B504480068044BC6
:10C2500003441B685B6C029309BD00008CAC0710A3
:10C260001800000009B504480068044B03441B682B
:10C270001B68029309BD00008CAC0710340000005D
:10C2800009B504480068044B03441B685B680293CB
:10C2900009BD00008CAC07103400000009B504484B
:10C2A0000068044B03441B681B69029309BD00002E
:10C2B0008CAC07103400000009B504480068044B3A
:10C2C00003441B685B69029309BD00008CAC071036
:10C2D0003400000009B504480068044B03441B689F
:10C2E0009B69029309BD00008CAC0710340000006C
:10C2F00009B504480068044B03441B68DB690293DA
:10C3000009BD00008CAC07103400000009B50448DA
:10C310000068044B03441B681B6A029309BD0000BC
:10C320008CAC07103400000009B504480068044BC9
:10C3300003441B685B6B029309BD00008CAC0710C3
:10C340004800000009B504480068044B03441B681A
:10C350001B6D029309BD00008CAC07104800000063
:10C3600009B504480068044B03441B685B6D0293E5
:10C3700009BD00008CAC07104800000009B5044856
:10C380000068044B03441B681B68029309BD00004E
:10C390008CAC07100800000009B504480068044B85
:10C3A00003441B685B68029309BD00008CAC071056
:10C3B0000800000009B504480068044B03441B68EA
:10C3C0005B69029309BD00008CAC071008000000F7
:10C3D00009B504480068044B03441B689B6D029335
:10C3E00009BD00008CAC07100800000009B5044826
:10C3F0000068044B03441B68D3F88830029309BDDE
:10C400008CAC07100800000009B504480068044B14
:10C4100003441B68D3F89430029309BD8CAC071019
:10C420000800000009B504480068044B03441B6879
:10C430005B68029309BD00008CAC07102800000067
:10C4400009B504480068044B03441B689B680293C9
:10C4500009BD00008CAC07102800000009B5044895
:10C460000068044B03441B68DB68029309BD0000AD
:10C470008CAC07102800000009B504480068044B84
:10C4800003441B681B69029309BD00008CAC0710B4
:10C490002800000009B504480068044B03441B68E9
:10C4A0005B69029309BD00008CAC071028000000F6
:10C4B00009B504480068044B03441B689B69029358
:10C4C00009BD00008CAC07102800000009B5044825
:10C4D0000068044B03441B68DB69029309BD00003C
:10C4E0008CAC07102800000009B504480068044B14
:10C4F00003441B681B6A029309BD00008CAC071043
:10C500002800000009B504480068044B03441B6878
:10C510001B6B029309BD00008CAC071028000000C3
:10C5200009B504480068044B03441B685B6B029325
:10C5300009BD00008CAC07102800000009B50448B4
:10C540000068044B03441B681B6C029309BD000088
:10C550008CAC07102800000009B504480068044BA3
:10C5600003441B685B6C029309BD00008CAC071090
:10C570002800000009B504480068044B03441B6808
:10C580005B6D029309BD00008CAC07102800000011
:10C5900009B504480068044B03441B689B6D029373
:10C5A00009BD00008CAC07102800000009B5044844
:10C5B0000068044B03441B689B68029309BD00009C
:10C5C0008CAC07102C00000009B504480068044B2F
:10C5D00003441B685B69029309BD00008CAC071023
:10C5E0002C00000009B504480068044B03441B6894
:10C5F000DB6A029309BD00008CAC07102C00000020
:10C6000009B504480068044B03441B681B6B029384
:10C6100009BD00008CAC07102C00000009B50448CF
:10C620000068044B03441B68DB6B029309BD0000E8
:10C630008CAC07102C00000009B504480068044BBE
:10C6400003441B681B68029309BD00008CAC0710F3
:10C650000400000009B504480068044B03441B684B
:10C660005B68029309BD00008CAC07100400000059
:10C6700009B504480068044B03441B689B68029397
:10C6800009BD00008CAC07100400000009B5044887
:10C690000068044B03441B68DB69029309BD00007A
:10C6A0008CAC07100400000009B504480068044B76
:10C6B00003441B685B6A029309BD00008CAC071041
:10C6C0000400000009B504480068044B03441B68DB
:10C6D000DB6B029309BD00008CAC07100400000066
:10C6E00009B504480068044B03441B681B6C0293A3
:10C6F00009BD00008CAC07100400000009B5044817
:10C700000068044B03441B685B6C029309BD000086
:10C710008CAC07100400000009B504480068044B05
:10C7200003441B68DB6C029309BD00008CAC07104E
:10C7300004000000002240681146FFF7D5BE002229
:10C7400040681146FFF7ECBE00224068FFF7DABEF2
:10C750000022406881F00101FFF7B8BE0023406865
:10C760001A461946FFF7A4BE002340681A46194628
:10C77000FFF790BE002240681146FFF77DBE002201
:10C7800040681146FFF75CBE002202214068FFF7B7
:10C7900065BE002340681A46FFF744BE0322024BE1
:10C7A0005A60024A1A6070475CAE071018FC3F02DC
:10C7B0000021FFF749BD0021FFF738BD10B5044641
:10C7C00008462170FFF7D0FC00232046636010BDAF
:10C7D00013B504460078FFF7EEFF58B920784FF6FE
:10C7E000FF710190FFF796FC019802B0BDE8104080
:10C7F000FFF7DEBF02B010BD0078FFF7DCBF0078A6
:10C80000FFF7D6BF30B50024400818601868E5B2BD
:10C81000884206D90134082C02D040081860F5E798
:10C820000725024B5B5D137030BD00BF54FC3F0217
:10C830002DE9F04306468FB000780C46FFF7BBFFAA
:10C8400000281BDB1422002109A8357801F0FBFB2E
:10C850000B230022284609A9ADF82430FFF7A0FCDD
:10C860009DF82D3013B19DF82C5055B100270125AE
:10C87000B946B84623795DB1C3B100200FB0BDE819
:10C88000F083DDF830809DF834909DF83570F1E745
:10C89000002B35D1A368434508D18DF820908DF841
:10C8A0002170BDF82020A3899A42E6D00023A16818
:10C8B0008DF80F300A9804AB0DF10F02FFF7A2FFBD
:10C8C000217985B989B9A36843450ED38DF82090A5
:10C8D0008DF82170BDF82020A3899A4205D1049BD0
:10C8E000434502D1C9E70029F9D100230193637BB5
:10C8F0009DF80F200093237B3078FFF789FCBCE77D
:10C900002B462A460121CDE90055F5E700232DE904
:10C91000F041044688B000780E4617460293FFF7B0
:10C920004AFF054600BB0146142203A894F8008084
:10C9300001F089FB0B232A46404603A9ADF80C30D1
:10C94000FFF72EFC07FB06F1049802AB0DF107027E
:10C950008DF80750FFF756FF20789DF80710FFF776
:10C96000E7FB2078FFF724FF029808B0BDE8F081CC
:10C9700008B50078FFF7EAFBC0B208BD30B587B054
:10C980000A9D044600950078FFF718FC3DB9207811
:10C9900002A9FFF72FFC9DF81430DB07F7D407B08E
:10C9A00030BD000002220020044B1A60044B054AEF
:10C9B000C3E900009A60FFF7EFBC00BF70AE07103C
:10C9C00064AE07100000FFFF10B504460068FFF7D3
:10C9D00041FE204610BD10B50446006808B1FFF7BF
:10C9E00039FE0023C4E90133236010BD38B5044685
:10C9F0000D4600680131FFF73BFE10B1C4E90005A8
:10CA0000012038BD10B50368044623B143688B424A
:10CA100001D3012010BD2046FFF7E8FF0028F9D020
:10CA2000A368002BF5D122681370F2E737B50D46E5
:10CA3000114601920446FFF7E5FF019A28B9204606
:10CA4000FFF7C9FF204603B030BD2946A260206829
:10CA500001F0ECFA00212268A368D154F2E7002328
:10CA600013B50446C0E900338360037341B108463F
:10CA70000191FBF749FF019902462046FFF7D6FFD7
:10CA8000204602B010BDF8B5044616460F4609B957
:10CA90000020F8BD8AB1856815442946FFF7B2FF2A
:10CAA0000028F5D0A368206832461844394601F0C2
:10CAB000BDFA002223685A55A5600120E9E713B5A5
:10CAC0000446084651B10191FBF71EFF024620467D
:10CAD000019902B0BDE81040FFF7D5BF02B010BD0C
:10CAE00010B543680446013B436063B903689B6823
:10CAF0009847A368013BA3602BB923682046BDE893
:10CB00001040DB68184710BD002302480360FFF7A0
:10CB100095B900BF74AE0710F8B506460D4600245F
:10CB20008F18BD420CD0336830469B6815F8011B46
:10CB30009847031E01DB1C44F3E7002C08BF1C468A
:10CB40002046F8BD13B50446084659B10191FBF7DC
:10CB5000DBFE0246204623680199DB6802B0BDE88F
:10CB60001040184702B010BD08B5FFF7EBFF08BD35
:10CB700003689B68184708B5FFF7E4FF08BD38B5A0
:10CB80000D210546FFF7F4FF0A2104462846FFF76A
:10CB9000EFFF204438BD38B50546FFF7D3FF044604
:10CBA0002846FFF7ECFF204438BDFFF7F4BF002311
:10CBB000012A98BF0A2230B58BB08DF8243009AC19
:10CBC0000D46B1FBF2F101FB125303F0FF03092BF9
:10CBD00094BF30333733DBB2AA4204F8013DEFD9BA
:10CBE0002146FFF7AFFF0BB030BD2DE9F04186B015
:10CBF00000AF05460E46381D142114463B60FFF772
:10CC000053FD13280ED82846391DFFF79BFF044615
:10CC10001EB12846FFF7B3FF044420461837BD462F
:10CC2000BDE8F08100F1080323F00703E846ADEB0F
:10CC3000030D2246411C3B686846FFF735FD6946F7
:10CC40002846FFF77FFF0446C546E1E710B50446D6
:10CC5000FFF768F8E060236820465B699847002882
:10CC600008DAFFF75FF8E368C01AA3689842F2D3C6
:10CC70004FF0FF3010BD2DE9F04107460C460D4640
:10CC80008E18B542A5EB040807D03846FFF7DEFF43
:10CC9000031E02DB05F8013BF3E74046BDE8F081E7
:10CCA000014B024A1A60704778AE071064FC3F02DD
:10CCB0002DE9F041154ADFF86080D2E90063801960
:10CCC00043EB0101124B8CB0D3E90067861941EBAD
:10CCD0000707D8E90023BB4208BFB24213D003A91B
:10CCE0006846CDE90067FFF717FD089B094D03F281
:10CCF0006C7303AC08930FCC0FC50FCC0FC5C8E9FC
:10CD0000006723682B600CB0BDE8F081B0AE07105F
:10CD1000A8AE071080AE0710B8AE071008B5002007
:10CD2000FFF76EFC28B1FFF74FFC80F00100C0B2A6
:10CD300008BD0120FCE7000008B5FFF7B9FF024B72
:10CD40001869013008BD00BF80AE0710FAEE087AFE
:10CD5000B4EEE70AF1EE10FA08B511D4F2EE0C7A4F
:10CD6000B4EEE70AF1EE10FA0ADCDFED067A60EEC7
:10CD7000277A17EE900AFBF769FD034BC3E9000120
:10CD800008BD00BF00006145B0AE071010B500201F
:10CD9000FEF7D6FF0446A0B9FFF7F0FA012810D13C
:10CDA0002046FFF715FB60B9FFF7B8FF10B9FFF792
:10CDB000FDFBF9E7FFF7B2FFBDE810400020FEF7EA
:10CDC000BFBF204610BD1FB5FFF7E0FF10220021B6
:10CDD000684601F038F900216846FEF7CDFF00985B
:10CDE00005B05DF804FB000008B5FFF7ECFFC117C4
:10CDF000FFF75EFF014B986808BD00BF80AE0710CB
:10CE000008B5FFF7E0FFC117FFF752FF014B586865
:10CE100008BD00BF80AE071008B5FFF7D4FFC117EB
:10CE2000FFF746FF014BD86808BD00BF80AE071072
:10CE300008B5FFF7C8FFBDE80840C117FFF77CBF82
:10CE400008B5FFF7C0FFC117FFF732FF014B586964
:10CE500008BD00BF80AE0710024B1A68024B1A6073
:10CE6000704700BFA4AC07107CAE07100021FFF78D
:10CE7000A1BA000010B5044B04460360806908B1F4
:10CE8000FFF72EFE204610BD68FD3F0210B5044698
:10CE9000FFF7F0FF20461C21FBF75FFD204610BD89
:10CEA0000022014B9A607047C0AE0710014B18601A
:10CEB000704700BFA8AC071008B50F4B43B100F096
:10CEC00089F903681B699847002801DD00E000BF6D
:10CED0000A4B43B100F0C0FE03681B699847002865
:10CEE00001DD00E000BF064B0BB100F0FBFE054B7F
:10CEF0000BB100F02DFF08BD000000000000000095
:10CF0000000000000000000008B5FFF7D5FFFEF7A5
:10CF100009FF014B186008BD48AF07100548064AD5
:10CF200008B5121A054901F081F8054B054A1A6047
:10CF300008BD00BF00B4071004B4071004F45F0874
:10CF400000B407101E1C279A002307B51A466FF07D
:10CF500077010093FFF758FA03B05DF804FB000077
:10CF600007B543880A2B08D0502B0BD1094B1B68FF
:10CF70004BB103B05DF804EB1847FFF7E5FF03B0D2
:10CF80005DF804FB00231A466FF077010093FFF76A
:10CF90003BFAF4E7D4AE0710002110B51148FFF7B3
:10CFA000ADFB114B1A68114B9A420CBF01220022B3
:10CFB0000F4B1A7001D0FFF7B1FFFEF789FE044650
:10CFC00001F04AF80B4B13B1204600E000BF0021EE
:10CFD0000848FFF723FBBDE8104000210648FFF793
:10CFE00005BA00BF25DB3F0200B407101E1C279ABC
:10CFF000D0AE071000000000D9DB3F02704710B52B
:10D0000004461821FBF7A9FC204610BDF0B5037DAE
:10D010000E46062B4FF000048DB000F1040712D02D
:10D0200000F1080515F8011D0A223046FFF7BFFD83
:10D03000AF42044419D0002CF4D02E213046FFF723
:10D0400097FD0444EEE72F236A4639460A208DF8FF
:10D050000040FEF70FFF6846FBF756FC33680246B8
:10D0600069463046DB689847044620460DB0F0BD5F
:10D0700010B50446044B1122002140F8043B00F097
:10D08000E2FF204610BD00BF8CFC3F020346074A6A
:10D0900010B543F8042B01F1100251F8044B9142F2
:10D0A00043F8044BF9D10A781A7010BD8CFC3F028A
:10D0B000037D042B04D14068003818BF012070475D
:10D0C000062B07D143683BB983682BB9C3681BB9EA
:10D0D0000069F1E7002070470120704710B59DF806
:10D0E000084044EA032343EA0242042342EA01617E
:10D0F0004160037510BD000007B5064B0360CB7897
:10D1000000938B784A780978FFF7E8FF03B05DF861
:10D1100004FB00BF8CFC3F024174704770477047AE
:10D1200008B50021007CFFF7D5F840EAE07008BDA3
:10D1300008B50121007CFFF7CDF840EAE07008BD9A
:10D1400008B5007CFFF7B8F820EAE07008BD08B524
:10D15000007CFFF7A3F820EAE07008BD13B5044691
:10D16000007C0191FFF7A8F80028019901DC607CA0
:10D1700020B1207CFFF7BCF820EAE07002B010BDBF
:10D18000007CFFF7C3B810B504461421FBF7E5FB9C
:10D19000204610BD10B54FF47A73044608460021AE
:10D1A000C4E90113044B2074236001231146637406
:10D1B000FFF758F8204610BDA0FC3F020022007C7B
:10D1C000FFF75EB810B504461422002100F03BFFC3
:10D1D000204610BD10B588B003A8FFF7F3FF0C4C34
:10D1E000D4E88F1F11F001010FD120460191FBF708
:10D1F000C3FB019948B103AA0648FFF7CBFF2046BD
:10D20000FBF7BFFB044800F00BFF024808B010BD5D
:10D21000D8AE0710DCAE071095DD3F0270474174B1
:10D22000704708B5007CFEF7A3FE20EAE07008BD59
:10D2300008B5007CFEF756FE20EAE07008BD08B590
:10D24000007CFEF76BFE40EAE07008BD08B5007C8C
:10D25000FEF756FE40EAE07008BD007CFEF76CBEAB
:10D2600037B5457C04462DB1207C03B0BDE8304085
:10D27000FEF72ABE007C0191FEF77AFE0028019994
:10D28000F2DC284603B030BD10B504461421FBF78C
:10D2900064FB204610BD000010B54FF47A730446BD
:10D2A000084611460022C4E90123044B2074236080
:10D2B00001236374FEF76AFE204610BDD4FC3F02D2
:10D2C000007CFEF747BE7047F8B5064615460C468B
:10D2D0008F18BC4206D0336830469B6814F8011B97
:10D2E0009847F6E72846F8BD0022007CFEF75CBEB2
:10D2F0000021007CFEF766BE0021007CFEF770BEB8
:10D300000021007CFEF77ABE0021007CFEF784BE7F
:10D3100010B504461421FBF720FB204610BD000089
:10D3200038B5044615464FF47A730022C4E9012348
:10D33000094B0846217423602946FEF789FEBF3059
:10D3400008D16B69DB0705D56868FFF783F9E868E2
:10D35000FFF780F9204638BD08FD3F0213B503688A
:10D360008DF807101C6C01224FF0FF330DF10701FF
:10D37000A04702B010BD10B403681C6C4FF0FF331F
:10D38000A4465DF8044B604713B5134602688DF858
:10D390000710146C0DF107010122A04702B010BD67
:10D3A00010B543690446B3F88620B3F884309A4236
:10D3B00008D06369B3F88420511CA3F88410134487
:10D3C000187910BD03681B6998470028F1D14FF008
:10D3D000FF30F6E7704743691868C043C00F7047D5
:10D3E00070470000064B10B5994200F10C0405D0BF
:10D3F000084600F003FD002808BF0024204610BDA9
:10D400005CFC3F0210B50446AC21FBF7A6FA2046AF
:10D4100010BDAC21FBF7A1BA2DE9F0414FF0000897
:10D420001C4686B0C0F8048005460E4617464146A5
:10D43000102202A800F007FE631C09D04FF47A7393
:10D44000B4FBF3F203FB12445C43CDE902280494DD
:10D4500010236869009341F2050240F6FF710068ED
:10D4600002ABFEF703FE002807DAFFF72BF903688B
:10D4700000206B6006B0BDE8F081686900233A4681
:10D4800031460068FEF72AFE031EEEDB1846F1E780
:10D4900030B5044687B06846FFF72EFE01AD043470
:10D4A0000FCD0FC42B68237007B030BD70B5044694
:10D4B00006464D69044B8C3544F8043B0FCD0FC430
:10D4C0002B683046237070BD8CFC3F022DE9F04381
:10D4D0000D4600249846036893B01B6B064617461A
:10D4E000984728466B46224621460094FEF79CFB4F
:10D4F0000546002863D1009B002B4BD05B69002BB5
:10D5000048D006A8FFF7B4FD009B5C696378022B46
:10D5100004D1211D06A8FFF7BBFF26E00A2B24D16A
:10D520001122294601A800F08EFDA368002B38D0F7
:10D5300004F108030DF1040C1834624618685968A8
:10D54000083303C2A3429446F7D1062301A90CA8CD
:10D550008DF8143007ACFFF799FD0DF1340CBCE8E1
:10D560000F000FC4DCF80030237006A8FFF7A0FD01
:10D5700080B133680DACD3F82490124B07AD0C93F7
:10D580000FCD0FC42B683A462370304643460CA992
:10D59000C84705460098FEF739FB284613B0BDE89A
:10D5A000F083E368002BC3D14FF6FF70D4F81090DE
:10D5B000FEF76EFC8145BBD104F11401AAE72546B4
:10D5C000E8E700BF8CFC3F0238B5436905461A689E
:10D5D000002A10DAB3F88620B3F884309A420AD1D0
:10D5E00003681B699847044628B92B6828461B6BBB
:10D5F0009847204638BD0120FCE710B54369044632
:10D60000B3F88620B3F884309A4205D06369B3F842
:10D6100084201344187910BD03681B6998470028BB
:10D62000F4D14FF0FF30F6E7F8B543691746B3F889
:10D630008620B3F8843005469A420E4616D06969B2
:10D640003046B1F88430B1F88640E41ABC4228BFB5
:10D650003C4604332246194400F0E8FC6A69B2F8FB
:10D6600084302344A2F884302046F8BD03681B6947
:10D6700098470028E3D14FF0FF34F5E700234269D3
:10D68000A2F884304269A2F886307047F0B50C46A3
:10D690001F4603688BB01B6B054616469847237DD3
:10D6A0000622042B0CBF02200A200121FEF724FDD4
:10D6B0006B6918606B691B68002B07DA2B682846BA
:10D6C0001B6B0024984720460BB0F0BD2846FFF79F
:10D6D000D5FFB7B1002303A9F8B20393ADF810301A
:10D6E000FEF7E8FA0028E9D106236869009341F2C1
:10D6F0000B0240F6FF71006803ABFEF7B7FC002891
:10D70000DCD11C22002103A800F09DFC237D042B0A
:10D710001DD14FF407733046ADF80C30FEF7C6FB51
:10D72000ADF80E006068FEF7B3FB04906B691C2235
:10D73000186803A9FEF7B6FC0028BFD16D69043450
:10D740008C350FCC0FC5236801242B70BBE740F646
:10D750001C233046ADF80C30FEF7A8FB05AEADF843
:10D760000E00231D04F11407324618685968083367
:10D7700003C2BB421646F7D1D8E7000030B5426974
:10D780000446B2F886308BB02BB1B2F884209A42AE
:10D7900001D1FFF773FF61690868002818DBB1F851
:10D7A00086507F2D14D804310823C5F18002294406
:10D7B000FEF786FC002813DD6369B3F886200AB9FA
:10D7C000A3F884206369B3F886201044A3F8860088
:10D7D0006369B3F88600B3F88430C01A0BB030BD6B
:10D7E000FEF770FF03680B2BF2D0FEF76BFF0368A8
:10D7F0000B2BEDD020230025CDE90235FEF762FF8B
:10D80000036802AA0193084B3220084900932B4673
:10D81000FEF798FD63691868FEF736FC4FF0FF329B
:10D8200063691A60D4E700BF33FD3F022CFD3F025D
:10D8300010B5436904461868002801DBFEF724FC94
:10D840004FF0FF32636900211A60606911228C3049
:10D8500000F0F9FB2046BDE81040FFF70FBF0023A2
:10D8600010B504460160C0F884308830FFF700FC32
:10D87000204610BD00234FF47A7273B5C0E901321F
:10D880000E4A0361026043610446AC200191FBF73C
:10D8900060F8051E05F10C0608D00123C5E9013327
:10D8A000074B304601992B60FFF7D9FF2046C4E9AA
:10D8B0000565FFF7E3FE02B070BD00BF68FD3F02E3
:10D8C0004CFD3F0210B504464FF0FF31FFF7D2FF89
:10D8D000204610BD10B504460068002801DBFEF7A5
:10D8E000D3FB204610BD0C30FFF7F4BF0022406888
:10D8F0001146FEF7C1BD002240681146FEF7F4BD97
:10D90000002240681146FEF70BBE00224068FEF779
:10D91000F9BD0022406881F00101FEF7D7BD002368
:10D9200040681A461946FEF7C3BD002340681A46F0
:10D930001946FEF7AFBD002240681146FEF780BDD4
:10D94000002202214068FEF789BD002340681A4684
:10D95000FEF768BD0422024B5A60024A1A60704703
:10D96000F0AE0710B8FD3F02002340681A46FEF7EC
:10D9700059BD002202214068FEF770BD00224068B8
:10D980001146FEF75DBD002240681146FEF774BDEA
:10D99000002340681A461946FEF77CBD0023406804
:10D9A0001A461946FEF784BD00214068FEF7C6BD41
:10D9B00000214068FEF7D0BD0022406881F00101DF
:10D9C000FEF784BD00224068FEF79CBD002240683F
:10D9D0001146FEF7A5BD002240681146FEF784BD42
:10D9E00000214068FEF7D4BD2DE9F04395B0144600
:10D9F0000D460746FFF73CFB00211C220DA80091B5
:10DA000000F021FB402320460C9300216B460CAA1A
:10DA1000FEF70AF9044600284BD102460121686846
:10DA2000FEF72AFD0221804622466868FEF724FDA3
:10DA300021468146009E002E3BD0002939D17368D3
:10DA4000022B03D00A2B11D0F669F4E7B8F1000FCE
:10DA5000FAD0716906A804313C1D07ADFFF74CFBF5
:10DA60000FCD0FC42B6841462370EDE7B9F1000FCD
:10DA7000EAD0102201A8746900F0E5FA062301AD8E
:10DA80008DF8143004F1080318342A4618685968D0
:10DA9000083303C2A3421546F7D101A906A83C1DCD
:10DAA00007ADFFF7F3FA0FCD0FC42B68494623707B
:10DAB000CAE70098FEF7AAF8384615B0BDE8F0832B
:10DAC000033802289ABF024B53F8200001487047E0
:10DAD000F4FD3F02F8AE071008B500224068FEF7DB
